:020000040000FA
:100000000202D475A49075D43D2222020029120464
:100010002B12000312053C12054012052F12054455
:1000200012000A12051F0205483222020363E51777
:1000300065097004E516650870030200E28516087C
:10004000851709050BE50B7002050AE4F512F51397
:10005000E4751101F510F50FF50EAF11AE10AD0FEF
:10006000AC0EEC4D4E4F70F21203CDE517650970E2
:1000700004E51665086013851608851709050BE564
:100080000B7002050AE4F512F513C3E50B940AE5BB
:100090000A94004014C2847FE07E2E1200E7D284CE
:1000A000E4F50AF50BF512F5130513E513700205D7
:1000B00012C394F4E51294014096C3E51394F3E55A
:1000C000129401401DE50B940AE50A94005013E4D4
:1000D000F50AF50BF512F513C2847FC8FE1200E78E
:1000E000D284227F017E008E1C8F1DE4F51EF51F39
:1000F000FBFAF582F583C3E51C64809481501CEE05
:100100003395E08F118E10F50FF50EAF11AE10ADD7
:100110000FAC0EEC4D4E4F607080F07401251DF554
:100120001D74FF351CF51C0BBB00010AC3E51D94B3
:10013000FFE51C6480948050E28A838B82D3E58241
:100140009400E583648094804022E47511FFF510EB
:10015000F50FF50EAF11AE10AD0FAC0EEC4D4E4FCE
:1001600070F2E582158270D5158380D1AE1CEE3316
:1001700095E0851D118E10F50FF50EAF11AE10AD87
:100180000FAC0EEC4D4E4F70F222E4F518F519F558
:100190001AF51B3082451200E32082FAE4F518F5C7
:1001A000197F027E001200E7308208051BE51B70F4
:1001B00002051A0519E51970020518C39414E5180B
:1001C0006480948040DBD3E51B9409E51A64809435
:1001D0008050047F1480507F0D804C1200E33082E9
:1001E000FA3082481200E32082FAE4F518F5197F0C
:1001F000027E001200E7308208051BE51B70020535
:100200001A0519E51970020518C39414E5186480DD
:10021000948040DBD3E51B9409E51A6480948050F8
:10022000047F1480027F0D7E001200E7D28722E453
:10023000F518F519F51AF51B3082451200E32082F6
:10024000FAE4F518F5197F027E001200E730820803
:10025000051BE51B7002051A0519E5197002051842
:10026000C39414E5186480948040DBD3E51B9409A3
:10027000E51A6480948050047F1380507F0D804C79
:100280001200E33082FA3082481200E32082FAE45E
:10029000F518F5197F027E001200E7308208051B71
:1002A000E51B7002051A0519E51970020518C394BB
:1002B00014E5186480948040DBD3E51B9409E51AAB
:1002C0006480948050047F1380027F0D7E001200B2
:1002D000E7C2872212002A787FE4F6D8FD758120D4
:1002E00002031E020474E493A3F8E493A34003F60C
:1002F0008001F208DFF48029E493A3F85407240C6A
:10030000C8C333C4540F4420C8834004F45680014A
:1003100046F6DFE4800B01020408102040809004C0
:10032000EFE47E019360BCA3FF543F30E509541F06
:10033000FEE493A360010ECF54C025E060A840B84E
:10034000E493A3FAE493A3F8E493A3C8C582C8CACC
:10035000C583CAF0A3C8C582C8CAC583CADFE9DE9F
:10036000E780BEC0E0C0F0C083C082C0D075D000BE
:10037000C000C001C002C003C004C005C006C00761
:1003800053C8BFE4FFFEFDFCAB11AA10A90FA80ED5
:10039000D312050E401CAF11AE10AD0FAC0EEF2402
:1003A000FFF511EE34FFF510ED34FFF50FEC34FFDF
:1003B000F50ED007D006D005D004D003D002D0016E
:1003C000D000D0D0D082D083D0F0D0E03220800ACC
:1003D000E4F50CF50DF51675170130804DD3E50DDC
:1003E0009432E50C94005042E4751101F510F50FBC
:1003F000F50EAF11AE10AD0FAC0EEC4D4E4F70F2CE
:10040000050DE50D7002050C20800B7516007517A3
:1004100001E4F50CF50DC3E50D9432E50C940040B4
:1004200009E4F516F517F50CF50D227597A5E4F519
:100430001BF51AF519F518E47FCCFEFDFCAB1BAAE1
:100440001AA919A818C312050E501800E51B24019B
:10045000F51BE4351AF51AE43519F519E43518F5E4
:100460001880D4A2AF9200C2AF7597DE7597ADA287
:100470000092AF2212000EC287D2841203CD8516DD
:10048000088517091203CDE51765097004E516659F
:1004900008600312002E1204B43083062087031272
:1004A000018A2083DF3087DC12022F7F647E0012F6
:1004B00000E780D0308502D284208532E4F514F53F
:1004C00015E4751101F510F50FF50EAF11AE10AD75
:1004D0000FAC0EEC4D4E4F70F22085100515E51552
:1004E00070020514B488DAE514B413D5C28422046A
:1004F0000E0000000002140000020C0000021600B2
:100500000002080000020A00000212000000EB9F37
:10051000F5F0EA9E42F0E99D42F0E89C45F022E5C4
:10052000C8540453C8FB43C82875CA7F42C8227503
:10053000BC2B75B93475DF6443E8402275A50222EF
:0C05400075E3C02275D1082275A8A02226
:00000001FF
